:100000000C9442000C9454000C9454000C94540032
:100010000C9454000C9454000C9454000C94540010
:100020000C9454000C9454000C9454000C94540000
:100030000C9454000C9454000C94B0030C94540091
:100040000C9454000C9454000C94C2030C9454006F
:100050000C9454000C9454000C9454000C945400D0
:100060000C9454000C94540035023B0242024902A5
:10007000500258025F023803C502D302F3021B0389
:100080003803380311241FBECFEFD8E0DEBFCDBF49
:1000900022E0A0E0B1E001C01D92A63BB207E1F76B
:1000A0000E940B040C9453050C940000FC01618326
:1000B0003783268310821382128256954795558383
:1000C00044830895FC01808181111AC08481958147
:1000D000009731F021E020839383828381E00895AB
:1000E000DF0182E080838BE490E09383828306804B
:1000F000F781E02D61E011968C91099581E00895DA
:1001000080E00895CF93DF93EC0188818230B9F0CD
:10011000833041F1813071F58A819B8101979B8306
:100120008A83892B39F582E088838BE490E09B8376
:100130008A83EE81FF8161E0898109951BC08A81F4
:100140009B8101979B838A83892BA1F4EE81FF8198
:1001500060E0898109958BE490E09B838A8383E04A
:10016000888308C08A819B8101979B838A83892B1E
:1001700009F41882DF91CF910895FC01E05CFF4FF4
:100180007081671780F00895220F331FFC01E20F82
:10019000F31F440F551FDC01A40FB51F2D913C9197
:1001A000318320836F5F262F30E0A9014F5F5F4FBF
:1001B000E72FF0E04E175F073CF3FC01E05CFF4FD8
:1001C000715070830895DC0190E00DC0292F30E05C
:1001D000FB01E20FF31F80812A0F3B1FF901EF5B48
:1001E000FF4F80839F5F933088F3FD01E05CFF4FFA
:1001F0001082AC5BBF4F4D935C930895805C9F4F22
:10020000FC0110820895FC01E05CFF4F2081203248
:1002100068F4E22FF0E0EE0FFF1FE80FF91F608394
:100220001182FC01E05CFF4F2F5F20830895FF9255
:100230000F931F93CF93DF93633008F041C0F12CED
:1002400039C00F2D10E0F801EE0FFF1FE80FF91F66
:100250002181621711F0F3942DC0EC01F801EE0F2B
:10026000FF1FE80FF91F9081FE01E60FF11DEF5B04
:10027000FF4F808198130FC0FE01EC5BFF4F019090
:10028000F081E02D862F0995882329F06F2DCE016E
:100290000E94BD0015C0F801EE0FFF1FEC0FFD1FFF
:1002A00081818F5F8183833058F06F2DCE010E9452
:1002B000BD0006C0FC01E05CFF4F2081F21608F291
:1002C000DF91CF911F910F91FF900895FC01A581BF
:1002D000B681878191E0980F9783A80FB11D6C9329
:1002E00081858150978189238783089582E0809357
:1002F000C00080E190E09093C5008093C40086E048
:100300008093C20088E98093C1000895FC0180E8D1
:1003100091E09183808380E884831282138220E0BD
:1003200031E0368325838187178210867387628741
:10033000168617861486158610AA0E9476010895DF
:10034000FC01A081B181828191E0980F9283A80F76
:10035000B11D6C9384818150928189238283089599
:10036000CF92DF92EF92FF920F931F93CF93DF9381
:100370006C01C62F7A01122F02E0020FD02FD62770
:1003800086E3D82780E006C0F701E80FF11D9081D1
:10039000D9278F5F8117C0F365E5C6010E9466010A
:1003A0006EE4C6010E94660165E4C6010E94660112
:1003B00062E5C6010E946601602FC6010E946601C7
:1003C0006AE3C6010E9466016C2FC6010E946601A5
:1003D000C0E008C0F701EC0FF11D6081C6010E946A
:1003E0006601CF5FC117B0F36D2FC6010E94660191
:1003F000DF91CF911F910F91FF90EF90DF90CF9001
:100400000895CF93DF93EC019F818885981709F4B5
:1004100077C09091C00095FF73C0ED81FE8191E09F
:10042000980F9887E80FF11D80818093C600898519
:10043000815098858923888763C0E881F98181E0AC
:10044000890F8B83E90FF11D20819C8191508923B5
:100450008B83EE858E2F90E08730910508F050C099
:10046000FC01EC5CFF4F0C944D05253509F048C0AC
:1004700081E08E8745C02E3419F482E08E8740C01B
:100480001E863EC0253419F483E08E8739C01E864F
:1004900037C0223519F484E08E8732C01E8630C002
:1004A0002F8718AA86E328272C8785E08E8728C007
:1004B0002A3319F486E08E8723C01E8621C08F85DB
:1004C000823088F098A9903210F01E8619C0FE0183
:1004D000E90FF11D208B9F5F98AB9C8529272C8706
:1004E00081508F870DC08C85281309C0EA85FB8554
:1004F00048A94150BE016F5E7F4F888909951E86CD
:100500009B818A81981399CFDF91CF9108950F93A2
:100510001F93DC0111967C936E9313965C934E931C
:10052000129715963C932E93149716961C92169735
:1005300017961D921D921D921C921A9700E714E9BE
:1005400020E030E01B960D931D932D933C931E9756
:1005500050961C921E921F9780E0FB0109951F91F7
:100560000F9108950F931F93CF93DF93DC0116969D
:10057000EC914E2F50E04730510508F077C0EC0168
:10058000FA01E55CFF4F0C944D05E881F98181E0AB
:100590000995EC81FD8109956F83788789879A8712
:1005A00082E08E8365C0EC81FD8109950F811885FD
:1005B00029853A85DC01CB01801B910BA20BB30B83
:1005C0000A97A105B10508F453C0E881F98180E0DC
:1005D0000995EC81FD8109956F83788789879A87D2
:1005E00083E08E8345C0EA81FB810995813051F417
:1005F000EC81FD8109956F83788789879A8784E0EC
:100600008E8336C0EC81FD8109950F81188529857F
:100610003A85DC01CB01801B910BA20BB30B0B8540
:100620001C852D853E8580179107A207B30700F131
:1006300086E08E831DC0EA81FB810995811118C077
:10064000EC81FD8109950F81188529853A85601B0C
:10065000710B820B930B2AE330E040E050E00E94E4
:100660002B05388B2F8785E08E8302C0FC01168214
:10067000DF91CF911F910F910895882321F08BB1C5
:1006800084608BB908958BB18B7F8BB9089589B144
:1006900083FB882780F9089560918400709185001C
:1006A0007695679580E090E00895CF93C82F242F2A
:1006B000AB01682F81E092E00E94C80480EB8C0FB0
:1006C000823010F0C33531F41092000285E292E0DE
:1006D0000E94FE00CF91089521E030E0A90102C000
:1006E000440F551F8A95E2F7CA01611102C040E02C
:1006F00000C0682F81E092E00E94B2040895833028
:1007000058F4E82FF0E0EE0FFF1FE95EFD4F808107
:1007100091810E946200089580E00895CF93C82FD0
:100720008091000281110BC04FE753E06BE072E053
:1007300085E292E00E94E30081E0809300026C2F4A
:1007400085E292E00E940301CF910895613039F46F
:10075000833028F4682F85E292E00E941701089503
:100760001F920F920FB60F9211248F9387B5835863
:1007700087BD8EB381608EBB8F910F900FBE0F909F
:100780001F9018951F920F920FB60F9211242F935E
:100790003F934F935F936F937F938F939F93AF9309
:1007A000BF93EF93FF936091C60084E892E00E94AC
:1007B000A001FF91EF91BF91AF919F918F917F9198
:1007C0006F915F914F913F912F910F900FBE0F90BE
:1007D0001F90189514BC85B385BB8CE787BD82E05C
:1007E00080936E0084E085BD08951092800082E0C1
:1007F0008093810008958EB38E7F8EBB8091B50269
:1008000081508093B502811105C084E68093B502C2
:1008100080E283B90895CF93DF9300D01F92CDB7C4
:10082000DEB7F89484E68093B50280E284B98AB199
:1008300084608AB98AB1877F8AB919821A821B8239
:10084000E7E1F2E08DE192E0918380838CE792E032
:10085000938382838FE092E0958384830E94EA03EE
:100860000E94F50365E573E084E892E00E9486014A
:100870002CE433E047E453E06DE373E08BE692E071
:100880000E94870226EA33E04EE853E064E872E013
:1008900081E092E00E949A042CE633E042E350E0CB
:1008A00060E08DE192E00E9456002CE633E042E3E6
:1008B00050E061E08CE792E00E9456002CE633E0C5
:1008C00042E350E062E08FE092E00E9456004FE782
:1008D00053E0BE016F5F7F4F85E292E00E94E3002C
:1008E0007894F09B12C00E94FB0381E092E00E948A
:1008F0001F058DE192E00E9482008CE792E00E9449
:1009000082008FE092E00E94820084E892E00E94E0
:1009100001028BE692E00E94B20280917102853062
:1009200011F410927102809171028630D1F610920A
:100930007102D7CFFC017183608355834483378371
:100940002683128213821186158681E0808708959E
:1009500020E040E050E060EFFC01808191810E9446
:10096000B0010895CF93DF9300D0CDB7DEB7698390
:100970004A8322E0AE014F5F5F4F62E5FC01808158
:1009800091810E94B0010F900F90DF91CF91089557
:10099000EF92FF920F931F93CF93DF938C01EA01A5
:1009A000E22E6E35E1F128F4603561F06135B1F089
:1009B0003FC06F35B9F0603FD9F581E0D80112969C
:1009C0008C9336C08881F8018187898182878A81EA
:1009D00083878B81848781E083832AC0DC0113961F
:1009E0001C9226C08881F80185870480F581E02D5E
:1009F000888109951DC0D8011696ED91FC91179735
:100A00008F2D90E0DC011196AC0FBD1F8C0F9D1F48
:100A10006C91DC018C910995F394F39401C0F12C55
:100A20008F2D90E001962E2D30E0821793071CF356
:100A3000DF91CF911F910F91FF90EF900895FC01EE
:100A4000908591509087911105C0CF012AEF2087A2
:100A50000E94A8040895A1E21A2EAA1BBB1BFD0147
:100A60000DC0AA1FBB1FEE1FFF1FA217B307E4078D
:100A7000F50720F0A21BB30BE40BF50B661F771FE5
:100A8000881F991F1A9469F76095709580959095C5
:100A90009B01AC01BD01CF010895EE0FFF1F059032
:0A0AA000F491E02D0994F894FFCFC3
:00000001FF
